S00E0000536F6E6172322E73726563E1
S11300000C9434000C9451000C9451000C94510045
S11300100C9451000C9451000C9451000C94510018
S11300200C9451000C9451000C94BB000C94760079
S11300300C9451000C94A4000C9451000C945100A5
S11300400C9426010C9451000C9451000C94510012
S11300500C9451000C9451000C9451000C945100D8
S11300600C9451000C94510011241FBECFEFD8E022
S1130070DEBFCDBF11E0A0E0B1E0EEE4F0E102C0EC
S113008005900D92A233B107D9F721E0A2E3B1E0C4
S113009001C01D92AF37B207E1F70E9499010C9499
S11300A025080C9400001092C50087E68093C400D4
S11300B088E18093C1008EE08093C2000895E0EC53
S11300C0F0E0908195FFFDCF8093C6000895CF9313
S11300D0DF93EC018881882331F021960E945F0030
S11300E089918111FBCFDF91CF9108951F920F92D7
S11300F00FB60F9211248F939F93EF93FF938091E8
S11301003E0190913F01892B81F0E1E8F0E080818C
S113011080648083EFE6F0E08081816080831092C8
S11301208000108280818062808381E090E09093DF
S11301303F0180933E01FF91EF919F918F910F902A
S11301400FBE0F901F9018951F920F920FB60F922B
S113015011248F939F9380913A0190913B010196D2
S113016090933B0180933A019F918F910F900FBE22
S11301700F901F9018951F920F920FB60F92112493
S11301808F939F93EF93FF938091120190911301AA
S1130190892B49F08091860090918700909370019B
S11301A080936F0113C08091860090918700909393
S11301B068018093670181E090E090933D01809312
S11301C03C01EFE6F0E080818F7D80831092130183
S11301D010921201E1E8F0E080818F7B8083FF912F
S11301E0EF919F918F910F900FBE0F901F901895D4
S11301F081E090E0909313018093120110923B01EF
S113020010923A0110923F0110923E0180918400B5
S11302109091850080569F4F909389008093880029
S1130220089584B1866084B9209880E48093800026
S113023081E08093810082E080936F007894089538
S113024085E085BD81E080936E0008951F920F9232
S11302500FB60F9211248F939F9380913801909140
S11302603901019690933901809338019F918F91C0
S11302700F900FBE0F901F901895539AE0EBF0E08B
S1130280808180628083808183608083E1EBF0E001
S11302908081886080838081846080838091000174
S11302A090910101E3EBF0E0808380818695809357
S11302B0B4000895409114015091150114161506C7
S11302C064F4FC01440F551F840F951F4191519113
S11302D0240F351FE817F907C9F7C9010895ECE79A
S11302E0F0E09081907F90839081906490839081DE
S11302F0892B8083EAE7F0E08081866C80838081AB
S113030086FDFDCF609178008091790070E0782BB4
S113031080E090E00E94AD0320E030E040EA50E449
S11303200E94130420E030E040E85AE30E941304E2
S11303300895CF93DF9300D0CDB7DEB70E9453006A
S11303400E9411010E9420010E943D0180918400BD
S113035090918500409690938900809388000E9434
S1130360F80084B18C6184B985B18C6185B95798E2
S11303700F2EF6E22F2EF1E03F2EF02D05E411E0D2
S113038009831A838091380190913901019709F00A
S1130390A9C089B1807890E09093350180933401AD
S11303A0892B29F18091360190913701892BF9F439
S11303B080914201813019F41092420104C0CC248E
S11303C0C394C0924201809142011F928F933F9245
S11303D02F921F930F930E943B0589819A810E945B
S11303E067000F900F900F900F900F900F908091D7
S11303F0340190913501909337018093360180E068
S113040090E00E946F0160936B0170936C01809384
S11304106D0190936E0120E030E04AE754E40E94BD
S113042013040E94770370936A0160936901CB01FE
S1130430770FAA0BBB0B84569109A109B1096C0172
S11304407D01CC0CDD1CEE1CFF1C8C0D9D1DAE1D16
S1130450BF1DBC01CD01660F771F881F991F20E8BF
S11304603CE040E050E00E94CC04309374012093BF
S11304707301B9016170772770934401609343015C
S1130480C9019595879581709927909372018093FE
S1130490710135952795359527952170332730932C
S11304A0660120936501672B11F02A9A01C02A98EE
S11304B08091710190917201892B11F02B9A01C0E6
S11304C02B988091650190916601892B11F02C9AEB
S11304D001C02C980E9411010E94F8001092390169
S11304E01092380180913C0190913D01892B09F4CF
S11304F049CF209167013091680180916F019091FB
S113050070012817390748F480913A0190913B0112
S1130510019790933B0180933A01809167019091F8
S1130520680160916F017091700120913A013091DE
S11305303B016901E12CF12C7601DD24CC24861BDE
S1130540970B80900A0190900B01A0900C01B09041
S11305500D01B701A601480F591F611D711D8416B5
S11305609506A606B70610F4B501A40140900E0145
S113057050900F016090100170901101D301C201DD
S1130580441655066606770610F4DB01CA0120916D
S1130590420121115BC0C0900601D0900701E09098
S11305A00801F0900901409102015091030160910A
S11305B00401709105019A01AB012C193D094E0902
S11305C05F09BC01CD0164197509860997090E9468
S11305D0A804A501940124193509460957090E9464
S11305E0CC04DA01C9018C0D9D1DAE1DBF1D909375
S11305F0010180930001809140019091410120917B
S1130600000130910101FC01EE0FFF1FEB58FE4F7A
S11306103183208301969093410180934001C090DF
S11306201401D09015018C159D0521F410924101FF
S11306301092400185E791E00E945A01B6010E94A0
S1130640B804709301016093000134C084199509C2
S1130650A609B709AC01BD01440F551F661F771FDA
S1130660440F551F661F771F440F551F661F771FC2
S11306706A017B01C81AD90AEA0AFB0AC701B60152
S1130680A501940124193509460957090E94CC048F
S11306903093330120933201E0913201F091330120
S11306A0EE0FFF1FEA5EFE4F80819181909301015E
S11306B08093000180912401909125019093010180
S11306C0809300018091000190910101E3EBF0E03F
S11306D08083809100019091010196958795E4EBC8
S11306E0F0E0808310923D0110923C014BCE0E94B9
S11306F07E036894B1110C940D0408950E94F203D2
S113070088F09F5798F0B92F9927B751B0F0E1F0CE
S1130710660F771F881F991F1AF0BA95C9F714C07E
S1130720B13091F00E940C04B1E008950C940C04D3
S1130730672F782F8827B85F39F0B93FCCF38695B7
S113074077956795B395D9F73EF490958095709514
S113075061957F4F8F4F9F4F0895E89409C097FB91
S11307603EF490958095709561957F4F8F4F9F4F84
S11307709923A9F0F92F96E9BB279395F6958795C8
S113078077956795B795F111F8CFFAF4BB0F11F48B
S113079060FF1BC06F5F7F4F8F4F9F4F16C0882332
S11307A011F096E911C0772321F09EE8872F762F68
S11307B005C0662371F096E8862F70E060E02AF0A9
S11307C09A95660F771F881FDAF7880F9695879595
S11307D097F9089557FD9058440F551F59F05F3FFE
S11307E071F04795880F97FB991F61F09F3F79F04F
S11307F087950895121613061406551FF2CF4695D1
S1130800F1DF08C0161617061806991FF1CF869552
S11308107105610508940895E894BB276627772736
S1130820CB0197F908950E9426040C9497040E9422
S1130830890438F00E94900420F0952311F00C9460
S113084080040C94860411240C940D040E94EA0381
S113085070F3959FC1F3950F50E0551F629FF0010F
S1130860729FBB27F00DB11D639FAA27F00DB11D28
S1130870AA1F649F6627B00DA11D661F829F2227B1
S1130880B00DA11D621F739FB00DA11D621F839F38
S1130890A00D611D221F749F3327A00D611D231F0E
S11308A0849F600D211D822F762F6A2F11249F575C
S11308B050409AF0F1F088234AF0EE0FFF1FBB1F5F
S11308C0661F771F881F91505040A9F79E3F51051E
S11308D080F00C9480040C940D045F3FE4F3983E84
S11308E0D4F3869577956795B795F795E7959F5FC8
S11308F0C1F7FE2B880F911D9695879597F908955A
S113090097F99F6780E870E060E008959FEF80ECBE
S1130910089500240A941616170618060906089561
S113092000240A9412161306140605060895092EC7
S11309300394000C11F4882352F0BB0F40F4BF2B36
S113094011F460FF04C06F5F7F4F8F4F9F4F089576
S1130950DB018F939F930E94EB04BF91AF91A29F01
S1130960800D911DA39F900DB29F900D11240895A9
S113097097FB072E16F4009407D077FD09D00E9448
S1130980F60407FC05D03EF4909581959F4F089599
S1130990709561957F4F0895052E97FB1EF4009482
S11309A00E94E30457FD07D00E940A0507FC03D008
S11309B04EF40C94E30450954095309521953F4FA7
S11309C04F4F5F4F089590958095709561957F4F37
S11309D08F4F9F4F08950E942C05A59F900DB49FA3
S11309E0900DA49F800D911D11240895AA1BBB1B7B
S11309F051E107C0AA1FBB1FA617B70710F0A61B1B
S1130A00B70B881F991F5A95A9F780959095BC013B
S1130A10CD010895A1E21A2EAA1BBB1BFD010DC036
S1130A20AA1FBB1FEE1FFF1FA217B307E407F5079A
S1130A3020F0A21BB30BE40BF50B661F771F881F76
S1130A40991F1A9469F760957095809590959B010C
S1130A50AC01BD01CF010895A29FB001B39FC001B5
S1130A60A39F700D811D1124911DB29F700D811DD6
S1130A701124911D0895AEE0B0E0E1E4F5E00C949A
S1130A80FC070D891E8986E08C831A8309838FEF06
S1130A909FE79E838D83AE01475E5F4F6F89788D9C
S1130AA0CE0101960E945D05EF81F885E00FF11FEC
S1130AB010822E96E4E00C941808ABE0B0E0E3E674
S1130AC0F5E00C94EE076C017B018A01FC011782AE
S1130AD01682838181FFCCC1CE0101963C01F601CF
S1130AE09381F70193FD859193FF81917F01882381
S1130AF009F4BAC1853239F493FD859193FF81914C
S1130B007F01853229F4B60190E00E945407E7CFB3
S1130B10912C212C312CFFE1F315D8F08B3279F094
S1130B2038F4803279F08332A1F4232D20611DC082
S1130B308D3261F0803369F4232D216016C0832D3A
S1130B408260382EE32DE4603E2E2AC0F32DF86037
S1130B501DC037FC2DC020ED280F2A3040F08E3206
S1130B60B9F436FC81C1232D2064322E19C036FE1F
S1130B7006C08AE0989E200D1124922E11C0EAE04E
S1130B802E9E200D1124222EF32DF0623F2E08C03C
S1130B908C3621F4832D8068382E02C0883641F4C7
S1130BA0F70193FD859193FF81917F018111B3CF6B
S1130BB0982F9F7D9554933028F40C5F1F4F9FE32B
S1130BC099830DC0833631F0833771F0833509F092
S1130BD059C021C0F801808189830E5F1F4F88248A
S1130BE08394912C530113C02801F2E04F0E511C41
S1130BF0F801A080B18036FE03C0692D70E002C008
S1130C006FEF7FEFC5010E9449074C018201F32D6C
S1130C10FF773F2E16C0280122E0420E511CF80136
S1130C20A080B18036FE03C0692D70E002C06FEF72
S1130C307FEFC5010E943E074C01F32DF0683F2E63
S1130C40820133FC1BC0822D90E088169906B0F413
S1130C50B60180E290E00E9454072A94F4CFF50193
S1130C6037FC859137FE81915F01B60190E00E94C7
S1130C70540721102A9421E0821A910881149104C6
S1130C8071F7E8C0843611F0893641F5F80137FE72
S1130C9007C060817181828193810C5F1F4F08C0FE
S1130CA060817181072E000C880B990B0E5F1F4F1A
S1130CB0F32DFF763F2E97FF09C090958095709590
S1130CC061957F4F8F4F9F4FF0683F2E2AE030E0B1
S1130CD0A3010E949007882E861845C0853731F4F9
S1130CE0232D2F7EB22E2AE030E025C0932D997F4C
S1130CF0B92E8F36C1F018F4883579F0B5C0803735
S1130D0019F0883721F0B0C0E92FE061BE2EB4FE9F
S1130D100DC0FB2DF460BF2E09C034FE0AC0292F7C
S1130D202660B22E06C028E030E005C020E130E0A5
S1130D3002C020E132E0F801B7FE07C06081718192
S1130D40828193810C5F1F4F06C06081718180E0B6
S1130D5090E00E5F1F4FA3010E949007882E861813
S1130D60FB2DFF773F2E36FE0DC0232D2E7FA22EA6
S1130D70891458F434FE0BC032FC09C0832D8E7ED6
S1130D80A82E05C0B82CA32C03C0B82C01C0B92CC4
S1130D90A4FE0FC0FE01E80DF11D8081803321F413
S1130DA09A2D997EA92E09C0A2FE06C0B394B394CD
S1130DB004C08A2D867809F0B394A3FC11C0A0FE68
S1130DC006C0B21488F4280C922C9B180EC0B214DE
S1130DD060F4B60180E290E00E945407B394F7CF28
S1130DE0B21418F42B1802C0982C212CA4FE10C0A5
S1130DF0B60180E390E00E945407A2FE17C0A1FC54
S1130E0003C088E790E002C088E590E0B6010CC01A
S1130E108A2D867859F0A1FE02C08BE201C080E2DF
S1130E20A7FC8DE2B60190E00E945407891438F4BF
S1130E30B60180E390E00E9454079A94F7CF8A9415
S1130E40F301E80DF11D8081B60190E00E94540782
S1130E508110F5CF222009F442CEB60180E290E061
S1130E600E9454072A94F6CFF6018681978102C026
S1130E708FEF9FEF2B96E2E10C940A08FC0105909A
S1130E80615070400110D8F7809590958E0F9F1F88
S1130E900895FC016150704001900110D8F78095CD
S1130EA090958E0F9F1F08950F931F93CF93DF93F9
S1130EB0FB01238121FD03C08FEF9FEF2CC022FF94
S1130EC016C046815781248135814217530744F463
S1130ED0A081B1819D012F5F3F4F318320838C938B
S1130EE0268137812F5F3F4F3783268314C08B01C0
S1130EF0EC01FB010084F185E02D0995892BE1F6D5
S1130F00D80116968D919C911797019617969C93EC
S1130F108E931697CE01DF91CF911F910F91089573
S1130F20FA01AA27283051F1203181F1E8946F9316
S1130F306E7F6E5F7F4F8F4F9F4FAF4FB1E03ED0BC
S1130F40B4E03CD0670F781F891F9A1FA11D680F5A
S1130F50791F8A1F911DA11D6A0F711D811D911D8D
S1130F60A11D20D009F468943F912AE0269F112402
S1130F703019305D3193DEF6CF010895462F477066
S1130F80405D4193B3E00FD0C9F7F6CF462F4F70C1
S1130F90405D4A3318F0495D31FD4052419302D01F
S1130FA0A9F7EACFB4E0A6959795879577956795C5
S1130FB0BA95C9F700976105710508959B01AC01C5
S1130FC00A2E06945795479537952795BA95C9F7EC
S1130FD0620F731F841F951FA01D08952F923F92C7
S1130FE04F925F926F927F928F929F92AF92BF9235
S1130FF0CF92DF92EF92FF920F931F93CF93DF93E1
S1131000CDB7DEB7CA1BDB0B0FB6F894DEBF0FBE3D
S1131010CDBF09942A88398848885F846E847D848A
S11310208C849B84AA84B984C884DF80EE80FD808C
S11310300C811B81AA81B981CE0FD11D0FB6F89402
S1111040DEBF0FBECDBFED010895F894FFCFC3
S113104E3C00BD0000005F00000080BB00005C128D
S113105E0000010005005F00640071007E008E0038
S113106E9600A900BD00646973633A202564200AC2
S105107E00006C
S9030000FC
